:020000040000FA
:100000000C945C000C9479000C9479000C947900A9
:100010000C9479000C9479000C9479000C9479007C
:100020000C9479000C9479000C9479000C9479006C
:100030000C9479000C941D010C9479000C947900B7
:100040000C94D3000C9479000C9479000C947900F2
:100050000C9479000C9479000C9479000C9479003C
:100060000C9479000C947900000000080002010053
:100070000003040700000000000000000000000072
:10008000250028002B0000000000240027002A0083
:10009000040404040404040402020202020203032E
:1000A0000303030301020408102040800102040836
:1000B000102001020408102011241FBECFEFD8E049
:1000C000DEBFCDBF11E0A0E0B1E0E8E4F6E002C0A1
:1000D00005900D92A230B107D9F721E0A2E0B1E07E
:1000E00001C01D92AD30B207E1F70E9444010C94AB
:1000F00022030C9400000895209102013091030125
:1001000081E090E02115310511F090E080E09093BE
:10011000030180930201E5E7F0E09491E1EBF0E068
:100120008491EDE9F0E0E491EE23C9F0992339F0F0
:10013000933001F1A8F4913019F1923029F1F0E0F7
:10014000EE0FFF1FE458FF4FA591B4919FB7F894AD
:10015000EC91232B31F180958E238C939FBF0895D2
:100160009730A9F09830C9F0943049F79091800009
:100170009F7D03C0909180009F7790938000DFCF98
:1001800094B59F7794BDDBCF94B59F7DFBCF9091C5
:10019000B0009F779093B000D2CF9091B0009F7D38
:1001A000F9CF8E2BDACF1F920F920FB60F92112438
:1001B0002F933F938F939F93AF93BF9380910901A8
:1001C00090910A01A0910B01B0910C0130910801AE
:1001D00023E0230F2D3758F50196A11DB11D209363
:1001E00008018093090190930A01A0930B01B09339
:1001F0000C018091040190910501A0910601B0913C
:1002000007010196A11DB11D809304019093050182
:10021000A0930601B0930701BF91AF919F918F9179
:100220003F912F910F900FBE0F901F90189526E8C9
:10023000230F0296A11DB11DD2CF1F920F920FB6B0
:100240000F9211242F933F934F935F936F937F935C
:100250008F939F93AF93BF93EF93FF93E091000130
:10026000F09101010995FF91EF91BF91AF919F919D
:100270008F917F916F915F914F913F912F910F904F
:100280000FBE0F901F901895789484B5826084BD3E
:1002900084B5816084BD85B5826085BD85B581608A
:1002A00085BD80916E00816080936E001092810008
:1002B00080918100826080938100809181008160C3
:1002C0008093810080918000816080938000809184
:1002D000B10084608093B1008091B0008160809310
:1002E000B00080917A00846080937A0080917A00D7
:1002F000826080937A0080917A00816080937A0096
:1003000080917A00806880937A001092C100E1EBBE
:10031000F0E02491EDE9F0E08491882399F090E0F9
:10032000880F991FFC01EA57FF4FA591B491FC017A
:10033000E458FF4F859194918FB7F894EC91E22B9C
:10034000EC938FBF80E1809381001092800084E263
:1003500094EF909387008093860083E180938100DF
:100360008CE790E0909301018093000181E08093FD
:100370006F0080E4C82E04E214EF93E1D92E22E14D
:10038000E22E2AE7F22EC0E0D0E0C0927C008091FD
:100390007A00806480937A0080917A0086FDFCCF99
:1003A0006091780070917900072E000C880B990BF2
:1003B0000E9405022AE038E240EA5BE30E94640200
:1003C00020E030E048EC52E40E94640220E030E09B
:1003D00040EF51E40E94FE0187FF0BC0F0928700BE
:1003E000E0928600D0928100209779F20E9400006E
:1003F000CCCF1093870000938600F4CF0E94400278
:1004000008F481E00895E89409C097FB3EF49095C4
:100410008095709561957F4F8F4F9F4F9923A9F0DD
:10042000F92F96E9BB279395F6958795779567956C
:10043000B795F111F8CFFAF4BB0F11F460FF1BC0B0
:100440006F5F7F4F8F4F9F4F16C0882311F096E943
:1004500011C0772321F09EE8872F762F05C06623F1
:1004600071F096E8862F70E060E02AF09A95660FAA
:10047000771F881FDAF7880F9695879597F9089563
:10048000990F0008550FAA0BE0E8FEEF16161706A5
:10049000E807F907C0F012161306E407F50798F00D
:1004A000621B730B840B950B39F40A2661F0232B26
:1004B000242B252B21F408950A2609F4A140A695A2
:1004C0008FEF811D811D08950E9477020C94E80230
:1004D0000E94DA0238F00E94E10220F0952311F028
:1004E0000C94D1020C94D70211240C941C030E948A
:1004F000F90270F3959FC1F3950F50E0551F629F6D
:10050000F001729FBB27F00DB11D639FAA27F00D6C
:10051000B11DAA1F649F6627B00DA11D661F829F93
:100520002227B00DA11D621F739FB00DA11D621F78
:10053000839FA00D611D221F749F3327A00D611D95
:10054000231F849F600D211D822F762F6A2F112477
:100550009F5750409AF0F1F088234AF0EE0FFF1FAA
:10056000BB1F661F771F881F91505040A9F79E3F01
:10057000510580F00C94D1020C941C035F3FE4F30E
:10058000983ED4F3869577956795B795F795E79557
:100590009F5FC1F7FE2B880F911D9695879597F960
:1005A000089597F99F6780E870E060E008959FEFF5
:1005B00080EC089500240A941616170618060906FA
:1005C000089500240A9412161306140605060895C9
:1005D000092E0394000C11F4882352F0BB0F40F451
:1005E000BF2B11F460FF04C06F5F7F4F8F4F9F4F91
:1005F000089557FD9058440F551F59F05F3F71F013
:100600004795880F97FB991F61F09F3F79F0879579
:100610000895121613061406551FF2CF4695F1DF02
:1006200008C0161617061806991FF1CF8695710592
:10063000610508940895E894BB2766277727CB01C6
:0A06400097F90895F894FFCF7B00AE
:107E0000112484B714BE81FFF0D085E080938100F7
:107E100082E08093C00088E18093C10086E0809377
:107E2000C20080E18093C4008EE0C9D0259A86E02C
:107E300020E33CEF91E0309385002093840096BBD3
:107E4000B09BFECF1D9AA8958150A9F7CC24DD24C4
:107E500088248394B5E0AB2EA1E19A2EF3E0BF2EE7
:107E6000A2D0813461F49FD0082FAFD0023811F036
:107E7000013811F484E001C083E08DD089C08234E0
:107E800011F484E103C0853419F485E0A6D080C0E4
:107E9000853579F488D0E82EFF2485D0082F10E0AE
:107EA000102F00270E291F29000F111F8ED06801E7
:107EB0006FC0863521F484E090D080E0DECF843638
:107EC00009F040C070D06FD0082F6DD080E0C81688
:107ED00080E7D80618F4F601B7BEE895C0E0D1E017
:107EE00062D089930C17E1F7F0E0CF16F0E7DF06D8
:107EF00018F0F601B7BEE89568D007B600FCFDCFD4
:107F0000A601A0E0B1E02C9130E011968C91119780
:107F100090E0982F8827822B932B1296FA010C0160
:107F200087BEE89511244E5F5F4FF1E0A038BF0790
:107F300051F7F601A7BEE89507B600FCFDCF97BE46
:107F4000E89526C08437B1F42ED02DD0F82E2BD052
:107F50003CD0F601EF2C8F010F5F1F4F84911BD097
:107F6000EA94F801C1F70894C11CD11CFA94CF0C13
:107F7000D11C0EC0853739F428D08EE10CD085E9AC
:107F80000AD08FE07ACF813511F488E018D01DD067
:107F900080E101D065CF982F8091C00085FFFCCF94
:107FA0009093C60008958091C00087FFFCCF809118
:107FB000C00084FD01C0A8958091C6000895E0E648
:107FC000F0E098E1908380830895EDDF803219F02E
:107FD00088E0F5DFFFCF84E1DECF1F93182FE3DFCA
:107FE0001150E9F7F2DF1F91089580E0E8DFEE27F6
:047FF000FF270994CA
:027FFE00040479
:00000001FF
